S014000052544F535F50726F6A6563742E7372656392
S11300000C942A000C9447000C9447000C9447006D
S11300100C9447000C9447000C9447000C94410343
S11300200C9447000C9447000C9447000C94470030
S11300300C9447000C9447000C9447000C94470020
S11300400C9447000C9447000C9447000C94470010
S11300500C94470011241FBECFE5D8E0DEBFCDBF0E
S113006010E0A0E6B0E0E6E3F7E202C005900D92EE
S1130070AA3BB107D9F727E0AAEBB0E001C01D9273
S1130080AC31B207E1F70E94150C0C9499130C944F
S11300900000CF93DF938BE090E00E944403EC01D7
S11300A0009731F0FC0111921192CF010E9461017D
S11300B0CE01DF91CF910895AF92BF92CF92DF929C
S11300C0EF92FF920F931F93CF93DF937C016B0109
S11300D0A42EB22E0E941708F701C081D181B1105D
S11300E008C081E09E012C213D21232B51F480E0A6
S11300F008C081E09E012C213D212C153D0509F00D
S113010080E0882361F0AA2009F450C0B60160950C
S113011070956C237D23F7017183608347C00115BB
S1130120110509F443C0AA2019F060E071E002C08F
S113013060E070E0B11074606C297D29A801C701EA
S113014002960E941F0A0E94E608811102C00E94C2
S11301508D020E94FD0A91FD26C00FB6F8940F92FD
S1130160F70180819181B11008C021E0A6014823E4
S11301705923452B51F420E008C021E0A60148236F
S113018059234C155D0509F020E0222351F0AA20E3
S113019041F0B6016095709568237923F701718366
S11301A060830F900FBEEC01DD2702C00E94E608B9
S11301B0CE01DF91CF911F910F91FF90EF90DF90CF
S11301C0CF90BF90AF900895FC010FB6F8940F92B2
S11301D08081918160957095682379237183608310
S11301E00F900FBE0895AF92BF92CF92DF92EF921D
S11301F0FF920F931F93CF93DF937C018B01EC014C
S113020025960E941708D7011796ED91FC9118972F
S11302108D919C911197082B192B0D931C93CE173C
S1130220DF07A1F100E010E0BB24B394A12CC2804D
S1130230D380808191819C01332792FD0AC0D7012C
S11302406D917C91622373234B2D672B61F44A2DAE
S11302500AC0D7016D917C91622373234B2D6217E1
S1130260730709F04A2D442359F090FF02C0022B72
S1130270132BD7016D917C917260CF010E94800A8B
S1130280EC2DFD2DCE17DF0791F602C000E010E043
S113029000951095F701808191810823192311831A
S11302A000830E94E608D7018D919C91DF91CF9144
S11302B01F910F91FF90EF90DF90CF90BF90AF9080
S11302C00895FC010396928381832FEF3FEF3483DB
S11302D02383968385839087878310820895FC0106
S11302E0118610860895CF93DF939C01FB01DC01F6
S11302F01196CD91DC911297D383C2838C819D8119
S1130300958384838C819D81DC0113967C936E9309
S113031012977D836C8331872087F90180818F5FF9
S11303208083DF91CF910895CF93DF93EB014881D0
S113033059814F3F2FEF520721F4FC01A781B0856B
S11303400DC0DC01139601C0DF011296ED91FC9102
S113035013972081318142175307B0F71296ED911C
S1130360FC911397FB83EA83D583C483BD83AC8359
S11303701396DC93CE93129799878887FC0120818A
S11303802F5F2083DF91CF910895CF93DF93FC01FA
S1130390A085B185C281D381848195819D838C831D
S11303A0C481D581828193819B838A8311968D91A7
S11303B09C911297E817F90731F48481958112967C
S11303C09C938E931197118610868C9181508C93F7
S11303D08C91DF91CF91089531E1FC013083319705
S11303E022E220833197A3E3A0833197608331977E
S11303F0708331971082319760E86083319710825F
S1130400319762E06083319763E06083319764E001
S11304106083319765E06083319766E0608331974C
S113042067E06083319768E06083319769E06083B7
S1130430319760E1608331973083319732E13083C3
S1130440319733E13083319734E13083319735E1AB
S11304503083319736E13083319737E130833197F8
S113046038E13083319739E13083319730E230839A
S1130470319731E2308331972083319723E220830F
S11304803197408331975083319726E22083319707
S113049027E22083319728E22083319729E22083C1
S11304A0319720E32083319721E3208386970895B1
S11304B01BBC8CE78ABD8BE08EBD89B7806189BF88
S11304C0A091FF06B0910007CD91CDBFDD91DEBFB5
S11304D0FF91EF91DF91CF91BF91AF919F918F9158
S11304E07F916F915F914F913F912F911F910F9148
S11304F0FF90EF90DF90CF90BF90AF909F908F9040
S11305007F906F905F904F903F902F901F900F902F
S11305100FBE0F90089581E008950F920FB6F894DE
S11305200F921F9211242F923F924F925F926F92DB
S11305307F928F929F92AF92BF92CF92DF92EF926F
S1130540FF920F931F932F933F934F935F936F9358
S11305507F938F939F93AF93BF93CF93DF93EF9347
S1130560FF93A091FF06B09100070DB60D920EB651
S11305700D920E94A709A091FF06B0910007CD91AA
S1130580CDBFDD91DEBFFF91EF91DF91CF91BF91A0
S1130590AF919F918F917F916F915F914F913F9117
S11305A02F911F910F91FF90EF90DF90CF90BF900C
S11305B0AF909F908F907F906F905F904F903F90FF
S11305C02F901F900F900FBE0F9008950F920FB6AB
S11305D0F8940F921F9211242F923F924F925F92A0
S11305E06F927F928F929F92AF92BF92CF92DF923F
S11305F0EF92FF920F931F932F933F934F935F9329
S11306006F937F938F939F93AF93BF93CF93DF9316
S1130610EF93FF93A091FF06B09100070DB60D92E2
S11306200EB60D920E9427080E94A709A091FF060A
S1130630B0910007CD91CDBFDD91DEBFFF91EF9169
S1130640DF91CF91BF91AF919F918F917F916F91E6
S11306505F914F913F912F911F910F91FF90EF90D8
S1130660DF90CF90BF90AF909F908F907F906F90CE
S11306705F904F903F902F901F900F900FBE0F9060
S113068008950E94E6021895CF93DF93EC010E942F
S113069017088091BA009091BB00892B31F48FEB3D
S11306A090E09093BB008093BA002091BC003091FD
S11306B0BD00C9018C0F9D1F8B3D45E0940770F46C
S11306C02817390770F4C091BA00D091BB00C20F4B
S11306D0D31F9093BD008093BC0005C0C0E0D0E060
S11306E002C0C0E0D0E00E94E608CE01DF91CF91C5
S11306F0089508950FB6F8940F92FC01928D0F900F
S11307000FBE81E0911180E008950F931F93CF9362
S1130710DF93EC01042F1A8D4C8D4423B9F10111A0
S113072016C050E08A819B810E9490132C8D8A818F
S11307309B81820F911D9B838A832C813D8182172B
S1130740930720F1888199819B838A831FC050E09D
S11307508E819F810E9490138C8D90E0919581955C
S113076091092E813F81280F391F3F832E834881B1
S113077059812417350730F42C813D81820F931F52
S11307809F838E83023011F4111111501F5F1A8F51
S113079080E0DF91CF911F910F910895FC01448D6A
S11307A04423A9F050E026813781240F351F378375
S11307B02683848195812817390720F080819181CF
S11307C097838683CB01668177810E949013089575
S11307D0EF92FF920F931F93CF938C010FB6F8946F
S11307E00F92FC01C68D1C16ACF48189811106C0E0
S11307F011C0F8018189811105C00CC07801F1E1B3
S1130800EF0EF11CC7010E94380A81110E94F90AF7
S1130810C15079F78FEFF801868F0F900FBE0FB696
S1130820F8940F92C58D1C16ACF48085811106C016
S113083011C0F8018085811105C00CC07801F8E071
S1130840EF0EF11CC7010E94380A81110E94F90AB7
S1130850C15079F78FEFF801858F0F900FBECF91BC
S11308601F910F91FF90EF900895CF93DF93EC01C8
S11308700FB6F8940F92E881F9818B8D2C8D90E05E
S113088030E0829FA001839F500D929F500D112450
S11308904E0F5F1F5D834C831A8EFB83EA8301979F
S11308A0829FA001839F500D929F500D1124CF0170
S11308B0840F951F9F838E838FEF8D8F8E8F611191
S11308C00CC08885882389F0CE0108960E94380AD6
S11308D0882359F00E948D0208C0CE0108960E9418
S11308E06101CE0141960E9461010F900FBE81E02B
S11308F0DF91CF9108950F931F93CF93DF93082F28
S1130900162F869FC00111244F960E944403EC01C8
S1130910009771F0111103C09983888303C04F9627
S1130920998388830B8F1C8F61E0CE010E9435046C
S1130930CE01DF91CF911F910F9108959F92AF92B5
S1130940BF92CF92DF92EF92FF920F931F93CF93B8
S1130950DF9300D000D01F92CDB7DEB78C016B01BE
S11309605D834C83A22EB12C992493947C0188E05E
S1130970E80EF11C0FB6F8940F92F801928D838D56
S1130980981718F0F2E0AF1219C04A2DB601C80149
S11309900E948503F8019189992349F0C801419681
S11309A00E94380A882331F00E948D0203C081110D
S11309B00E948D020F900FBE81E050C08C819D81FA
S11309C0892B21F40F900FBE80E048C0B11005C000
S11309D0CE0101960E94B80AB92C0F900FBE0E9456
S11309E017080FB6F8940F92F801858D8F3F09F41C
S11309F0158EF801868D8F3F09F4168E0F900FBE69
S1130A00BE016C5F7F4FCE0101960E94C30A811123
S1130A101FC00FB6F8940F92F801928D0F900FBE7D
S1130A20838D98130FC06C817D81C7010E940D0ACC
S1130A30C8010E94E8030E94E60881119BCF0E942E
S1130A408D0298CFC8010E94E8030E94E60892CF65
S1130A50C8010E94E8030E94E60880E00F900F900E
S1130A600F900F900F90DF91CF911F910F91FF90F6
S1130A70EF90DF90CF90BF90AF909F9008959F929A
S1130A80AF92BF92CF92DF92EF92FF920F931F9398
S1130A90CF93DF9300D000D01F92CDB7DEB78C0187
S1130AA05B015D834C83E12C992493946C0181E177
S1130AB0C80ED11C0FB6F8940F92F801F28CFF20E7
S1130AC0A9F0B501C8010E94CE03FA94F801F28E90
S1130AD08085882339F0C80108960E94380A81115C
S1130AE00E948D020F900FBE81E051C08C819D81C8
S1130AF0892B21F40F900FBE80E049C0E11005C09E
S1130B00CE0101960E94B80AE92C0F900FBE0E94F4
S1130B1017080FB6F8940F92F801858D8F3F09F4EA
S1130B20158EF801868D8F3F09F4168E0F900FBE37
S1130B30BE016C5F7F4FCE0101960E94C30A8111F2
S1130B401AC0C8010E947A03882379F06C817D81E0
S1130B50C6010E940D0AC8010E94E8030E94E6082B
S1130B608111A8CF0E948D02A5CFC8010E94E8037D
S1130B700E94E6089FCFC8010E94E8030E94E6088D
S1130B80C8010E947A03882309F494CF80E00F906F
S1130B900F900F900F900F90DF91CF911F910F91B5
S1130BA0FF90EF90DF90CF90BF90AF909F9008950B
S1130BB0E091C706F091C8068081811107C08FEFCC
S1130BC09FEF90939E0680939D060895E091C7063B
S1130BD0F091C8060580F681E02D80819181909383
S1130BE09E0680939D060895FF920F931F93CF93C3
S1130BF0DF93EC01F62E0091A6061091A7068091D2
S1130C00FF069091000702960E94C501CF3F8FEF27
S1130C10D80769F4FF2059F06091FF06709100072E
S1130C206E5F7F4F89EA96E00E9473012FC0C00F68
S1130C30D11FE091FF06F0910007D383C283C01750
S1130C40D10768F46091FF06709100078091C50692
S1130C509091C6066E5F7F4F0E94940117C0609109
S1130C60FF06709100078091C7069091C8066E5FD9
S1130C707F4F0E94940180919D0690919E06C81713
S1130C80D90720F4D0939E06C0939D06DF91CF919F
S1130C901F910F91FF90089503EB16E00F2EFBEDCB
S1130CA0EF2EF6E0FF2EF02D8091B206882329F175
S1130CB00FB6F8940F92D8011596ED91FC91169702
S1130CC0C681D781CE0102960E94C5018091A806F3
S1130CD081508093A8068091B20681508093B20619
S1130CE00F900FBE8F89988D0E947903CE010E94C8
S1130CF079038091B2068111DBCFF70180818230C4
S1130D0010F00E948D020E94AF0CCECF4F925F92E2
S1130D106F927F928F929F92AF92BF92CF92DF9207
S1130D20EF92FF920F93CF93DF934C016B015A0123
S1130D302901CA010E9444033C01892B09F4E7C03C
S1130D4086E290E00E944403EC01892B59F0788EEE
S1130D506F8A81E0A81AB108A60CB71CC114D1048B
S1130D6029F420C0C3010E947903D1C0D6018C911B
S1130D70898F8C918823A1F0AE01465E5F4FF60106
S1130D803196B8E0CB0ED11CCF012191DA012D931D
S1130D90AD01DC018C91882319F0EC15FD05A1F758
S1130DA018A201C0198E043008F003E00E8B6E0106
S1130DB0B2E0CB0ED11CC6010E946F01CE010C968D
S1130DC00E946F01D987C88784E090E0801B910955
S1130DD09D878C87DB8BCA8B19A21AA21BA21CA22B
S1130DE01DA2A201B401C5010E94EC01998388836C
S1130DF0E114F10419F0F701D183C0830FB6F8941C
S1130E000F928091A8068F5F8093A8068091FF06B9
S1130E1090910007892BD1F5D0930007C093FF066A
S1130E208091A806813009F041C08BED96E00E94C4
S1130E30610184EE96E00E9461018DEE96E00E94CD
S1130E40610186EF96E00E94610182ED96E00E94C6
S1130E50610189EC96E00E9461018CEB96E00E94AE
S1130E60610183EB96E00E94610189EA96E00E94A9
S1130E70610182ED96E09093C8068093C70689ECE1
S1130E8096E09093C6068093C50610C08091A40690
S1130E9081110CC0E091FF06F091000796898E89BC
S1130EA0891720F0D0930007C093FF0680919F0616
S1130EB08F5F80939F068E899091A506981710F4F2
S1130EC08093A50690E09C01220F331F220F331F4D
S1130ED0220F331F820F931FB6018552994F0E9430
S1130EE073010F900FBE8091A406882361F0E091F6
S1130EF0FF06F091000796898E89981730F40E94B6
S1130F008D0281E005C081E003C081E001C08FEF64
S1130F10DF91CF910F91FF90EF90DF90CF90BF9032
S1130F20AF909F908F907F906F905F904F900895B7
S1130F300F931F93CF93DF93EC010FB6F8940F92A6
S1130F40892B21F4C091FF06D09100078E010E5F1A
S1130F501F4FC8010E94C5018C899D89892B21F0EE
S1130F60CE010C960E94C50180919F068F5F8093ED
S1130F709F068091FF0690910007C817D90759F47E
S1130F80B80183EB96E00E9473018091B2068F5FF3
S1130F908093B2060EC08091A80681508093A80663
S1130FA08F89988D0E947903CE010E9479030E9453
S1130FB0D8050F900FBE8091A406882349F0809134
S1130FC0FF0690910007C817D90711F40E948D02FB
S1130FD0DF91CF911F910F910895EF92FF920F939C
S1130FE00F2EFBE9EF2EF6E0FF2EF02D00E020E0BF
S1130FF030E045E550E062E670E08CE496E00E9463
S11310008606813081F4F8948FEF9FEF90939E06CB
S113101080939D0681E08093A4061092A706109207
S1131020A6060E9458020F91FF90EF9008958091B8
S11310309A068F5F80939A0608950FB6F8940F92DC
S11310408091A6069091A7060F900FBE0895CF92A7
S1131050DF92EF92FF920F931F93CF93DF938091D0
S11310609A0681119FC0E090A606F090A7068FEF24
S1131070E81AF80AF092A706E092A606E114F10431
S1131080B9F48091C7069091C8062091C5063091A5
S1131090C6063093C8062093C7069093C60680936D
S11310A0C5068091A0068F5F8093A0060E94D80594
S11310B080919D0690919E06E816F90610F4D12CB5
S11310C053C0D12CCC24C394E091C706F091C80638
S11310D08081811107C08FEF9FEF90939E068093CC
S11310E09D0642C0E091C706F091C8060580F681CE
S11310F0E02DC681D7818A819B81E816F90628F400
S113110090939E0680939D062FC08E010E5F1F4F05
S1131110C8010E94C5018C899D89892B21F0CE01CB
S11311200C960E94C5018E899091A506981710F41B
S11311308093A50690E09C01220F331F220F331FDA
S1131140220F331F820F931FB8018552994F0E94BB
S11311507301E091FF06F09100079E898689981734
S113116008F4B2CFDC2CB0CFE091FF06F091000779
S1131170868990E0FC01EE0FFF1FEE0FFF1FEE0FBC
S1131180FF1F8E0F9F1FFC01E552F94F80818230B3
S113119010F0DD24D3948091A106882369F0DD2426
S11311A0D3940AC08091A2069091A30601969093CD
S11311B0A3068093A206D12C8D2DDF91CF911F9190
S11311C00F91FF90EF90DF90CF900895DF92EF9210
S11311D0FF920F931F93CF93DF930FB6F8940F9260
S11311E080919A06815080939A0680919A06811183
S11311F063C08091A806811133C061C0D7011596E0
S1131200ED91FC911697C681D781CE010C960E9470
S1131210C5018E010E5F1F4FC8010E94C5018E8952
S11312209091A506981710F48093A50690E09C0170
S1131230220F331F220F331F220F331F820F931FDE
S1131240B8018552994F0E947301E091FF06F09115
S113125000079E898689981768F0D092A1060AC073
S1131260C0E0D0E00F2EFCEBEF2EF6E0FF2EF02DC9
S1131270DD24D394F70180818111C0CFCD2B11F0EF
S11312800E94D805C091A206D091A306209761F0D0
S113129011E00E94270881111093A1062197C9F734
S11312A01092A3061092A2068091A106882331F021
S11312B00E948D0281E003C080E001C080E00F90B5
S11312C00FBEDF91CF911F910F91FF90EF90DF90B0
S11312D008950F931F93CF93DF938C01EB010E942A
S11312E017084091A6065091A706F8012081318184
S11312F0C9018C0F9D1F4217530748F482179307A7
S1131300E8F4918380834817590768F407C082176B
S1131310930780F04817590768F010C060E0841BF9
S1131320950B0E94F4050E94E60881110BC00E94EF
S11313308D0208C0F80191838083F0CFF801918376
S11313408083F1CFDF91CF911F910F910895809108
S11313509A06882321F081E08093A10608951092D3
S1131360A1062091A506822F90E0FC01EE0FFF1F3D
S1131370EE0FFF1FEE0FFF1FE80FF91FE552F94FA5
S11313803081311111C02150822F90E0FC01EE0F09
S1131390FF1FEE0FFF1FEE0FFF1FE80FF91FE552AF
S11313A0F94F3081332379F3AC01440F551F440FB7
S11313B0551F440F551F480F591FDA01A552B94F45
S11313C01196ED91FC9112970280F381E02D129613
S11313D0FC93EE9311974252594FE417F50729F401
S11313E042815381FD0152834183FC01EE0FFF1FB3
S11313F0EE0FFF1FEE0FFF1F8E0F9F1FFC01E55224
S1131400F94F0180F281E02D868197819093000746
S11314108093FF062093A5060895CF93DF93EB01F5
S11314206091FF0670910007645F7F4F0E949401F2
S113143061E0CE010E94F405DF91CF910895CF932E
S1131440DF93EA01E091FF06F09100077068758769
S113145064876091FF0670910007645F7F4F0E946C
S1131460730161E0CE010E94F405DF91CF910895EC
S11314700F931F93CF93DF93DC011596ED91FC91AD
S11314801697C681D7818E01045F1F4FC8010E9441
S1131490C50180919A0681111CC00A501109C80126
S11314A00E94C5018E899091A506981710F4809327
S11314B0A50690E09C01220F331F220F331F220F39
S11314C0331F820F931FB8018552994F0E947301F5
S11314D005C0B8018CEB96E00E947301E091FF0611
S11314E0F09100079E898689891720F481E0809312
S11314F0A10601C080E0DF91CF911F910F91089563
S11315000F931F93CF93DF937068FC017183608303
S1131510C681D7810E94C5018E010E5F1F4FC8018D
S11315200E94C5018E899091A506981710F48093A6
S1131530A50690E09C01220F331F220F331F220FB8
S1131540331F820F931FB8018552994F0E94730174
S1131550E091FF06F09100079E898689891718F4A7
S113156081E08093A106DF91CF911F910F9108959F
S11315702091A006FC0120832091A6063091A706A5
S1131580328321830895CF93DF930FB6F8940F929B
S11315902091A6063091A706DB014D915C914F3F47
S11315A0BFEF5B07F1F0EC01E981FA81A091A0069D
S11315B0B881BA1719F02E173F07A8F42E1B3F0B5A
S11315C02417350748F4FB01421B530B5183408316
S11315D00E94B80A80E008C0FB011182108281E0F9
S11315E003C080E001C081E00F900FBEDF91CF9176
S11315F0089581E08093A1060895E091FF06F0919B
S1131600000784859585E091FF06F0910007A0917D
S1131610FF06B091000756964C9124E030E0241B5D
S11316203109358724870895C29889EF90E001979E
S1131630F1F700C00000C29A8BED95E00197F1F735
S113164000C000000895CF93C82FC098C19888B3F4
S11316508F7088BB88B39C2F907F892B88BB0E9496
S1131660140B88B38F7088BB88B3C295C07FC82B16
S1131670C8BB0E94140BCF9108958FEF87BB84E001
S113168088BB83E30E94230B82E30E94230B88E23E
S11316900E94230B8CE00E94230B0895CF93C82F44
S11316A0C09AC19888B38F7088BB88B39C2F907FF1
S11316B0892B88BB0E94140B88B38F7088BB88B3B6
S11316C0C295C07FC82BC8BB0E94140BCF9108954C
S11316D0813049F028F0823049F0833051F00CC059
S11316E080E8860F0AC080EC860F07C080E8860F6A
S11316F004C080E8860F01C080E80E94230B08958F
S113170081E00E94230B0895CF93DF93EC0188813D
S1131710882331F021960E944E0B89918111FBCFD1
S1131720DF91CF910895CF93DF93EC01862F642F3F
S11317300E94680BCE010E94840BDF91CF91089523
S1131740EF92FF920F931F93CF93DF93CDB7DEB742
S113175060970FB6F894DEBF0FBECDBFAC01FE019B
S1131760319680E1DF011D928A95E9F74115510513
S113177021F480E30E944E0B43C0FE01319600E049
S113178010E001C087019A01ADECBCEC0E9481130A
S11317909695879596958795969587959C01220FA2
S11317A0331F880F991F880F991F880F991F820F65
S11317B0931F9A01281B390BC901805D81939A01FB
S11317C00E948113AC0156954795569547955695B9
S11317D0479578013FEFE31AF30A4115510591F655
S11317E0112374F081E090E08C0F9D1FE80EF91E28
S11317F0D7018E917D010E944E0B01501109C2F751
S113180060960FB6F894DEBF0FBECDBFDF91CF91C7
S11318101F910F91FF90EF9008958FEF8ABB9FE087
S113182094BB85BB80E881BB0895EF92FF920F9330
S11318300E940D0C0E943D0B0E94AD1180E00E949D
S1131840BB110E944900909315078093140740E050
S113185061E084E00E947B0490930D0780930C0761
S11318600F2EF2E1EF2EF7E0FF2EF02D03E020E043
S113187030E044E650E067E670E08CEB9CE00E94C8
S113188086060F2EF6E1EF2EF7E0FF2EF02D02E094
S113189020E030E044E650E06FE670E084E29DE052
S11318A00E9486060F2EFAE1EF2EF7E0FF2EF02DB0
S11318B001E020E030E048E750E066E770E087E0D0
S11318C09EE00E94860620916000309161000F2EF8
S11318D0FEE0EF2EF7E0FF2EF02D48E750E06AE738
S11318E070E088EC9DE00E9486060F2EF8E1EF2E52
S11318F0F7E0FF2EF02D20E030E048E750E06EE7FF
S113190070E08EE691E10E9486060F2EFAE0EF2E3B
S1131910F7E0FF2EF02D20E030E048E750E065E8E6
S113192070E080E89EE00E9486062091600030917D
S113193061000F2EF0E1EF2EF7E0FF2EF02D48E7C7
S113194050E06CE870E08DEE9EE00E9486060E94F6
S1131950ED0780E090E00F91FF90EF9008958BB336
S113196080958BBB2FEF84E39CE021508040904016
S1131970E1F700C000000895CF92DF92EF92FF924A
S11319800F931F93CF93DF9300D0CDB7DEB7789436
S11319900E941D089A838983F12CEE24E39419E0B4
S11319A007E3D12CCC24C394412F50E060E070E0D5
S11319B087E990E00E94930B193041F481E08F0D88
S11319C093E0F91611F1EC2C08E30AC0112319F085
S11319D0E11005C001C007E31F5FED2C03C08F2D8C
S11319E01150F82E412F50E060E070E087E690E05F
S11319F00E94930B0E941D089A838983602F70E0D4
S1131A00CE0101960E946909CFCF6FEF7FEF8091DD
S1131A101407909115070E94E40061E070E0809142
S1131A201407909115070E94F30080E090E00E9453
S1131A3098070F900F90DF91CF911F910F91FF9016
S1131A40EF90DF90CF900895EF92FF920F931F9342
S1131A50CF93DF9300D0CDB7DEB70FEF1FEF20E0B9
S1131A6040E061E070E080911407909115070E94B6
S1131A705C000E941D089A8389830E941D088C01C2
S1131A8080E0E12CFF24F394811136C060E070E023
S1131A9080911407909115070E94E40084FD61C0B1
S1131AA041E050E060E070E08FE990E00E94930B29
S1131AB042E050E061E070E08DEA90E00E94930B18
S1131AC029813A81C9018C509E4F801B910B803132
S1131AD0974240F464EF71E0CE0101960E946909D7
S1131AE08F2DD2CFB801605F784D621B730BCE018E
S1131AF001960E94690938C060E070E08091140783
S1131B00909115070E94E40084FD2BC00E94800B75
S1131B1029813A81C90186509F4F801B910B8031E6
S1131B20974240F46AEF70E0CE0101960E94690981
S1131B308E2DAACFB801605F784D621B730BCE0166
S1131B4001960E94690910C062E070E08091140758
S1131B50909115070E94F30080E090E00E9498079E
S1131B600EC00E94800BF0CF0E94800B68E070E0F2
S1131B7080911407909115070E94F300E5CF0F9010
S1131B800F90DF91CF911F910F91FF90EF900895E7
S1131B90EC010FEF1FEF20E040E061E070E0809186
S1131BA01407909115070E945C0020E040E062E079
S1131BB070E080911407909115070E945C00F12C4D
S1131BC00FEF1FEF20E041E064E070E08091140724
S1131BD0909115070E945C008881882379F081E048
S1131BE0F81621F08B819C81892B11F40E94800BC3
S1131BF088810E944E0B1882F12CE2CF0E94800B48
S1131C0089819A810E94A00BFF24F394D9CFCF93AA
S1131C10DF9300D0CDB7DEB70FEF1FEF20E040E039
S1131C2061E070E080911407909115070E945C00B8
S1131C3020E040E062E070E0809114079091150785
S1131C400E945C000E941D089A838983E12CFF2472
S1131C50F3946894BB24B2F8CC24C3946894AA2463
S1131C60A1F80F2EF3E0DF2EF02D0FEF1FEF20E091
S1131C7040E068E070E080911407909115070E949D
S1131C805C0082E0F816E9F08F1520F081E0F81688
S1131C9041F0EBCF83E0F816E1F084E0F81641F16F
S1131CA0E4CF8AE0E80E8E2D0E94BB1184E6E81290
S1131CB001C0FA2C69E170E0CE0101960E94690925
S1131CC0D4CF6AEF70E0CE0101960E946909FD2C21
S1131CD0CCCF86EFE80E8E2D0E94BB11E11001C01F
S1131CE0FB2C69E170E0CE0101960E946909BDCF29
S1131CF06AEF70E0CE0101960E946909FC2CB5CF11
S1131D00CF93DF9300D01F92CDB7DEB70FEF1FEF55
S1131D1020E040E061E070E08091140790911507A5
S1131D200E945C0020E040E062E070E080911407D3
S1131D30909115070E945C0083E689830E941D0828
S1131D409B838A830E941D085C0100E010E0F12C53
S1131D50912CC12CDD24D39480B3982F9170E92E5B
S1131D6080FD2AC0FF2021F00E941D085C0130C0C4
S1131D700E941D088C010A191B092AC020E04AE0B0
S1131D8050E0BE016F5F7F4F80910C0790910D076B
S1131D900E949E04FE2C15C0093B8BE0180780F0BE
S1131DA00E94800B68E070E0809114079091150701
S1131DB00E94F300FE2C05C0092D1C2DFD2C01C032
S1131DC0FE2C64E170E0CE0102960E946909C4CF42
S1131DD0083B9BE0190700F7D1CFCF93DF931F9205
S1131DE0CDB7DEB77C010FEF1FEF20E040E061E0EC
S1131DF070E080911407909115070E945C0020E028
S1131E0040E062E070E080911407909115070E9411
S1131E105C001982F70110828CE08783148213829C
S1131E201682158212821182D12C00E00F2EF0E36B
S1131E30AF2EF02D0F2EFCE0BF2EF02DC12C55241B
S1131E4053940F2EFEE06F2EF02D0F2EFDE07F2E0B
S1131E50F02D0F2EFFE08F2EF02D0F2EF3E09F2E8E
S1131E60F02D4FEF5FEFBE016F5F7F4F80910C0746
S1131E7090910D070E943F0584EF800F843048F451
S1131E80898194EF980F943020F4F7018783082F09
S1131E90AFC11981133609F49AC11C3089F038F4A2
S1131EA0113009F419C1133009F41DC15FC11E308A
S1131EB009F48CC008F447C01F3009F4CAC056C1E5
S1131EC0F70187818D3099F018F48C3031F031C0EE
S1131ED08E30B9F08F3021F12CC0F7012581368185
S1131EE083819481820F931F9683858322C0F70197
S1131EF08581968123813481821B930B968385830C
S1131F0018C0F7014581568123813481429FC00165
S1131F10439F900D529F900D11249683858309C091
S1131F20F70185819681638174810E946D137683A4
S1131F306583F70114821382B78285819681928327
S1131F408183012F33C1F70187818D3099F018F413
S1131F508C3031F031C08E30B9F08F3021F12CC08B
S1131F60F7012581368183819481820F931F9683A3
S1131F70858322C0F7018581968123813481821B68
S1131F80930B9683858318C0F7014581568123817D
S1131F903481429FC001439F900D529F900D1124A4
S1131FA09683858309C0F701858196816381748155
S1131FB00E946D1376836583F701148213827782FE
S1131FC08581968192838183012FF0C0F7018781F7
S1131FD08D3099F018F48C3031F031C08E30B9F076
S1131FE08F3021F12CC0F7012581368183819481C2
S1131FF0820F931F9683858322C0F7018581968182
S113200023813481821B930B9683858318C0F70147
S11320104581568123813481429FC001439F900DA5
S1132020529F900D11249683858309C0F701858101
S11320309681638174810E946D1376836583F701B1
S11320401482138267828581968192838183012F12
S1132050ADC0F70187818D3099F018F48C3031F0E0
S113206031C08E30B9F08F3021F12CC0F7012581B9
S1132070368183819481820F931F9683858322C046
S1132080F7018581968123813481821B930B96838A
S1132090858318C0F7014581568123813481429F8D
S11320A0C001439F900D529F900D11249683858308
S11320B009C0F70185819681638174810E946D1343
S11320C076836583F70114821382878285819681E2
S11320D092838183012F6AC0F701148213821282D2
S11320E011820C2D66C0F70187818D3099F018F4A8
S11320F08C3031F031C08E30B9F08F3021F12CC0EA
S1132100F7012581368183819481820F931F968301
S1132110858322C0F7018581968123813481821BC6
S1132120930B9683858318C0F701458156812381DB
S11321303481429FC001439F900D529F900D112402
S11321409683858309C0F7018581968163817481B3
S11321500E946D1376836583F7011482138297823C
S11321608581968192838183012F20C0123009F4E6
S1132170A982F7018781833009F4D52C4981F701BD
S113218023813481C901880F991F220F331F220F25
S1132190331F220F331F820F931F840F911DC0978B
S11321A0948383839283818340830C2DF1E0DF1237
S11321B005C0F701B78216821582DC2C64E070E05A
S11321C080911407909115070E94F30011C0033603
S11321D079F0F7011482138212821182A08264E0E2
S11321E070E080911407909115070E94F300012F6D
S11321F064E070E080911407909115070E94F30049
S113220030CE0F931F93CF93DF93A0E0B0E0C1E0F3
S1132210D0E08A2F95B39F6095BB25B3AE010A2EFB
S113222002C0440F551F0A94E2F7942F909592230D
S113223095BB20E030E0922F43B38901B9016C5F74
S11322407F4FFE0102C0EE0FFF1F6A95E2F750E0D8
S11322504E235F23452B61F4222351F0833069F12F
S113226001501109902F990F090F8F5C800F2CC01A
S113227063B370E0AB014E235F23452B29F4833015
S113228019F48CE0890F20C09C9905C08F5F8230BF
S1132290D9F480E319C02F5F3F4F2430310559F63C
S11322A01196A430B10509F0B4CF03C08093090797
S11322B010C01092090780E00CC043B350E04E23D5
S11322C05F23452B09F7DDCF909109079813EECFD3
S11322D080E0DF91CF911F910F910895CF93DF9309
S11322E000D01F92CDB7DEB70FEF1FEF20E040E024
S11322F061E070E080911407909115070E945C00E2
S113230019820E941D089B838A830E94011189837C
S11323108823E1F068E070E080911407909115073C
S11323200E94E40060E170E0809114079091150729
S11323300E94F30020E044E650E0BE016F5F7F4F4F
S113234080910C0790910D070E949E0464E170E057
S1132350CE0102960E946909D8CF85B5886085BDF3
S113236085B5806485BD85B5806285BD85B5887F6A
S1132370826085BD0895682F70E080E090E00E943F
S1132380741220E030E048EC52E40E94D11120E0C5
S113239030E04FE753E40E9400130E94431263BDF0
S11323A008950E94E5110C94C6120E94BF1258F0C1
S11323B00E94B81240F029F45F3F29F00C94AF1248
S11323C051110C94FA120C94B5120E94D71268F3AE
S11323D09923B1F3552391F3951B550BBB27AA27DA
S11323E062177307840738F09F5F5F4F220F331F14
S11323F0441FAA1FA9F335D00E2E3AF0E0E832D0DC
S113240091505040E695001CCAF72BD0FE2F29D0DE
S1132410660F771F881FBB1F261737074807AB07B0
S1132420B0E809F0BB0B802DBF01FF2793585F4F25
S11324303AF09E3F510578F00C94AF120C94FA12C6
S11324405F3FE4F3983ED4F3869577956795B79507
S1132450F7959F5FC9F7880F911D9695879597F912
S11324600895E1E0660F771F881FBB1F621773078B
S11324708407BA0720F0621B730B840BBA0BEE1FA0
S113248088F7E09508950E94DF1288F09F5798F02E
S1132490B92F9927B751B0F0E1F0660F771F881F65
S11324A0991F1AF0BA95C9F714C0B13091F00E947F
S11324B0F912B1E008950C94F912672F782F882748
S11324C0B85F39F0B93FCCF3869577956795B395A6
S11324D0D9F73EF490958095709561957F4F8F4F15
S11324E09F4F0895E89409C097FB3EF4909580951A
S11324F0709561957F4F8F4F9F4F9923A9F0F92FC6
S113250096E9BB279395F695879577956795B79543
S1132510F111F8CFFAF4BB0F11F460FF1BC06F5F29
S11325207F4F8F4F9F4F16C0882311F096E911C03B
S1132530772321F09EE8872F762F05C0662371F05C
S113254096E8862F70E060E02AF09A95660F771F70
S1132550881FDAF7880F9695879597F9089597F964
S11325609F6780E870E060E008959FEF80EC089535
S113257000240A941616170618060906089500245E
S11325800A9412161306140605060895092E0394D8
S1132590000C11F4882352F0BB0F40F4BF2B11F44C
S11325A060FF04C06F5F7F4F8F4F9F4F089557FDAB
S11325B09058440F551F59F05F3F71F04795880FAD
S11325C097FB991F61F09F3F79F087950895121644
S11325D013061406551FF2CF4695F1DF08C01616F0
S11325E017061806991FF1CF8695710561050894A1
S11325F00895E894BB2766277727CB0197F90895B8
S11326000E9413130C94C6120E94B81238F00E9450
S1132610BF1220F0952311F00C94AF120C94B51254
S113262011240C94FA120E94D71270F3959FC1F3EF
S1132630950F50E0551F629FF001729FBB27F00D6C
S1132640B11D639FAA27F00DB11DAA1F649F6627C1
S1132650B00DA11D661F829F2227B00DA11D621F10
S1132660739FB00DA11D621F839FA00D611D221FCA
S1132670749F3327A00D611D231F849F600D211DAE
S1132680822F762F6A2F11249F5750409AF0F1F031
S113269088234AF0EE0FFF1FBB1F661F771F881F9A
S11326A091505040A9F79E3F510580F00C94AF1211
S11326B00C94FA125F3FE4F3983ED4F38695779531
S11326C06795B795F795E7959F5FC1F7FE2B880F40
S11326D0911D9695879597F90895AA1BBB1B51E107
S11326E007C0AA1FBB1FA617B70710F0A61BB70B7E
S11326F0881F991F5A95A9F780959095BC01CD0123
S11327000895A29FB001B39FC001A39F700D811DC6
S11327101124911DB29F700D811D1124911D0895E6
S1132720FB01DC0102C001900D9241505040D8F7EA
S10927300895F894FFCFA8
S1132736010749444C450057656C636F6D6500504D
S1132746726F6D7074004C4544004C4344004B65F5
S113275679706164005377697463680043616C63DC
S1132766756C61746F720020202020202020005098
S11327767265737320616E79206B657900746F20BE
S10D2786636F6E74696E75650000E0
S9030000FC
